{
  "contractName": "DeterministicDeployFactory",
  "abi": [
    {
      "anonymous": false,
      "inputs": [
        {
          "indexed": false,
          "internalType": "address",
          "name": "addr",
          "type": "address"
        }
      ],
      "name": "Deploy",
      "type": "event"
    },
    {
      "inputs": [
        {
          "internalType": "bytes",
          "name": "bytecode",
          "type": "bytes"
        },
        {
          "internalType": "uint256",
          "name": "_salt",
          "type": "uint256"
        }
      ],
      "name": "deploy",
      "outputs": [],
      "stateMutability": "nonpayable",
      "type": "function"
    }
  ],
  "bytecode": "0x608060405234801561001057600080fd5b5061031f806100206000396000f3fe608060405234801561001057600080fd5b506004361061002b5760003560e01c80639c4ae2d014610030575b600080fd5b61004a60048036038101906100459190610231565b61004c565b005b6000818351602085016000f59050803b61006557600080fd5b7f55ea6c6b31543d8e2ec6a72f71a79c0f4b72ed0d4757172b043d8f4f4cd848488160405161009491906102ce565b60405180910390a1505050565b6000604051905090565b600080fd5b600080fd5b600080fd5b600080fd5b6000601f19601f8301169050919050565b7f4e487b7100000000000000000000000000000000000000000000000000000000600052604160045260246000fd5b610108826100bf565b810181811067ffffffffffffffff82111715610127576101266100d0565b5b80604052505050565b600061013a6100a1565b905061014682826100ff565b919050565b600067ffffffffffffffff821115610166576101656100d0565b5b61016f826100bf565b9050602081019050919050565b82818337600083830152505050565b600061019e6101998461014b565b610130565b9050828152602081018484840111156101ba576101b96100ba565b5b6101c584828561017c565b509392505050565b600082601f8301126101e2576101e16100b5565b5b81356101f284826020860161018b565b91505092915050565b6000819050919050565b61020e816101fb565b811461021957600080fd5b50565b60008135905061022b81610205565b92915050565b60008060408385031215610248576102476100ab565b5b600083013567ffffffffffffffff811115610266576102656100b0565b5b610272858286016101cd565b92505060206102838582860161021c565b9150509250929050565b600073ffffffffffffffffffffffffffffffffffffffff82169050919050565b60006102b88261028d565b9050919050565b6102c8816102ad565b82525050565b60006020820190506102e360008301846102bf565b9291505056fea26469706673582212209c12adbfccbd24c60460f1a72d1f27c0e53c54aec21c0242c6342cb599b48d9764736f6c63430008100033",
  "immutableReferences": {},
  "source": "// SPDX-License-Identifier: MIT\n\npragma solidity ^0.8.9;\n\ncontract DeterministicDeployFactory {\n    event Deploy(address addr);\n\n    function deploy(bytes memory bytecode, uint _salt) external {\n        address addr;\n        assembly {\n            addr := create2(0, add(bytecode, 0x20), mload(bytecode), _salt)\n            if iszero(extcodesize(addr)) {\n        revert(0, 0)\n      }\n    }\n\n    emit Deploy(addr);\n    }\n}",
  "sourcePath": "/Users/blockchainsj/jin/dapp/create2/contracts/DeterministicDeployFactory.sol",
  "compiler": {
    "name": "solc",
    "version": "0.8.16+commit.07a7930e.Emscripten.clang"
  },
  "schemaVersion": "3.4.9",
  "updatedAt": "2022-09-30T12:14:19.846Z",
  "networkType": "ethereum",
  "devdoc": {
    "kind": "dev",
    "methods": {},
    "version": 1
  },
  "userdoc": {
    "kind": "user",
    "methods": {},
    "version": 1
  }
}